:100000000C949A010C94BB010C94BB010C94BB01A1
:100010000C94BB010C94BB010C94BB010C94BB0170
:100020000C94BB010C94BB010C94BB010C94BB0160
:100030000C94BB010C94BB010C94BB010C94BB0150
:100040000C94BB010C94BB010C94BB010C94BB0140
:100050000C94BB010C94BB010C94BB010C94BB0130
:100060000C94BB010C94BB010C94BB010C94BB0120
:100070000C94BB010C94BB010C94BB010C94BB0110
:100080000C94BB010C94BB010C94BB010C94BB0100
:100090000C94BB010C94BB010C94BB010C94BB01F0
:1000A0000C94BB010C94BB010C94BB010C94BB01E0
:1000B0000C94BB010C94BB010C94BB010C94BB01D0
:1000C0000C94BB010C94BB010C94BB010C94BB01C0
:1000D0000C94BB010C94BB010C94BB010C94BB01B0
:1000E0000C94BB010C94BB010C94BB010C94BB01A0
:1000F0000C94BB010C94BB010C94BB010C94BB0190
:100100000C94BB010C94BB010C94BB010C94BB017F
:100110000C94BB010C94BB010C94BB010C94BB016F
:100120000C94BB010C94BB010C94BB010C94BB015F
:100130000C94BB010C94BB010C94BB010C94BB014F
:100140000C94BB010C94BB010C94BB010C94BB013F
:100150000C94BB010C94BB010C94BB010C94BB012F
:100160000C94BB010C94BB010C94BB010C94BB011F
:100170000C94BB010C94BB010C94BB010C94BB010F
:100180000C94BB010C94BB010C94BB010C94BB01FF
:100190000C94BB010C94BB010C94BB010C94BB01EF
:1001A0000C94BB010C94BB010C94BB010C94BB01DF
:1001B0000C94BB010C94BB010C94BB010C94BB01CF
:1001C0000C94BB010C94BB010C94BB010C94BB01BF
:1001D0000C94BB010C94BB010C94BB010C948905DD
:1001E0000C94B3050C94BB010C94BB010C94BB01A3
:1001F0000C94BB010C94BB010C94BB01084AD73B87
:100200003BCE016E84BCBFFDC12F3D6C74319ABDE5
:1002100056833DDA3D00C77F11BED9E4BB4C3E9109
:100220006BAAAABE000000803F000C9480050C94CD
:1002300068056E616E00696E660000407A10F35AC0
:1002400000A0724E18090010A5D4E80000E8764816
:10025000170000E40B54020000CA9A3B000000E1C2
:10026000F505000080969800000040420F00000055
:10027000A08601000000102700000000E803000035
:1002800000006400000000000A00000000000100FF
:10029000000000002C76D888DC674F0823DFC1DF20
:1002A000AE59E1B1B796E5E3E453C63AE651997623
:1002B00096E8E6C28426EB898C9B62ED407C6FFC5D
:1002C000EFBC9C9F40F2BAA56FA5F490055A2AF79F
:1002D0005C936B6CF9676DC11BFCE0E40D47FEF5A8
:1002E00020E6B500D0ED902E030094357705008010
:1002F000841E080000204E0A000000C80C3333336F
:10030000330F986E12831141EF8D2114893BE6550E
:1003100016CFFEE6DB18D1844B381BF77C1D901DF1
:10032000A4BBE424203284725E228100C9F124EC53
:10033000A1E53D2711241FBECFEFCDBFDFE5DEBF16
:1003400000E00CBF10E2A0E0B0E2EEEBF0E200E073
:100350000BBF02C007900D92A435B107D9F720E278
:10036000A4E5B0E201C01D92A538B207E1F70E94F2
:1003700090030C945D100C940000FC0165831382C3
:1003800088E0818381E084830895FC018481837007
:100390008130C9F4660F642B668380E490E002C06C
:1003A000880F991F4A95E2F7248130E028233923EA
:1003B000232BD1F39481892F807194FF05C083E0B2
:1003C000838382E0089581E00895FC01660F642B29
:1003D000668380E490E002C0880F991F4A95E2F797
:1003E000248130E028233923232BD1F39481892FD2
:1003F000807194FF03C083E0838382E00895FC0151
:100400006783948196FFFDCF9481892F807194FF3B
:1004100003C083E0838382E00895FC0194819923E3
:10042000ECF78781662341F097E09383613031F4E4
:10043000948190FFFDCF089592E093830895BF9239
:10044000CF92DF92EF92FF920F931F93CF93DF93A0
:10045000442309F44AC0D32FF22EB42E162FC82FEE
:1004600040E0682F80EA94E00E94C501612F80EA95
:1004700094E00E94FF0183E08A95F1F7000041E0DB
:100480006C2F80EA94E00E94E5010F2D1D2FEE24D1
:10049000EA94EB0CF12CEFEFEE1AFE0AC0E0D0E08C
:1004A000CB2CD12CF1E0CF1AD108CC15DD0541F4CD
:1004B00061E080EA94E00E940D02F801808307C0A9
:1004C00060E080EA94E00E940D02F80180832196AA
:1004D0000F5F1F4FCE15DF0541F78B2DE0EAF4E0EB
:1004E00093E0938391E0948301C080E0DF91CF910A
:1004F0001F910F91FF90EF90DF90CF90BF900895E4
:100500009A0141E00E941F020895EF92FF920F931B
:100510001F93CF93DF93442329F17901142FC62F22
:10052000682F40E080EA94E00E94C5016C2F80EAC9
:1005300094E00E94FF01E7014FEF410F042F10E00C
:100540000F5F1F4F0E0D1F1D699180EA94E00E94FE
:10055000FF01C017D107C1F7E0EAF4E083E083832D
:1005600081E08483DF91CF911F910F91FF90EF90F5
:100570000895CF93DF931F92CDB7DEB749839E01D5
:100580002F5F3F4F41E00E9485020F90DF91CF9196
:100590000895FF920F931F93CF93DF931F92CDB7D0
:1005A000DEB7F42E8901AE014F5F5F4F0E948002DB
:1005B00061E070E0AB0102C0440F551FFA94E2F70E
:1005C00099814923F80140830F90DF91CF911F91CA
:1005D0000F91FF900895DF92EF92FF920F931F9378
:1005E000CF93DF931F92CDB7DEB7222389F1122F6D
:1005F000F42ED62EE82E1982AE014F5F5F4F0E9477
:100600008002882329F12F2D30E0211B31092F5F33
:100610003F4F81E090E002C0880F991F1A95E2F7E2
:100620000197022E02C0880F991F0A94E2F710E08A
:1006300002C0000F111F2A95E2F7482F40959981BB
:1006400049238023482B49836D2D8E2D0E94B902AA
:100650000F90DF91CF911F910F91FF90EF90DF905E
:100660000895EF92FF920F931F93CF93DF931F9202
:10067000CDB7DEB7182F062FF42EE22EAE014F5F56
:100680005F4F0E948002EE2059F021E030E0A90186
:1006900002C0440F551FFA94E2F78981482B0BC022
:1006A00021E030E0A90102C0440F551FFA94E2F79F
:1006B0004095998149234983602F812F0E94B90277
:1006C0000F90DF91CF911F910F91FF90EF900895C0
:1006D00065E080EA94E00E94BD01E0E8F6E083E096
:1006E000818384E0858398E3908B918BE0E6F6E04C
:1006F00091E0918392E091838183E0E0F9E087EEDD
:1007000093E086A397A386E0808383E1818388EECC
:1007100093E080A791A782A793A784A795A70895A0
:10072000CF93DF93CDB7DEB76C97CDBFDEBF0E940E
:10073000680360E874E88EE190E00E94DD0578943B
:100740000E943305892B41F48EE090E29F938F93B2
:100750000E94EB0F0F900F900E94210487EA91E610
:100760000197F1F700C000000F2EFCE1AF2EF0E280
:10077000BF2EF02DCE0145967C018E010F5E1F4FDE
:100780009E01235F3F4FAE01475F5F4FBE016B5F2E
:100790007F4F44970E9462044D805E806F80788412
:1007A000C984DA84EB84FC84A3019201C301B20101
:1007B0000E941B0A698F7A8F8B8F9C8FA3019201F5
:1007C000C301B2010E941B0A2B013C01A701960143
:1007D000C701B6010E941B0A9B01AC01C301B20113
:1007E0000E9422080E94B20A9B01AC0169817A81B1
:1007F0008B819C810E94BD080E948E089F938F93DD
:100800007F936F93BF92AF920E94EB0F9FEF24E311
:100810008CE0915020408040E1F700C000000F9034
:100820000F900F900F900F900F90A4CF20E030E02A
:1008300046E050E06BE670E088E690E00E9431030D
:1008400008950F931F930E94160487EA91E601977B
:10085000F1F700C0000003E010E023E030E042E0E8
:1008600050E06BE670E088E690E00E94EB0200E06A
:1008700010E023E030E042E050E06AE170E088E61A
:1008800090E00E94EB0247E050E069E170E088E60A
:1008900090E00E94B90222E030E044E050E06BE1D9
:1008A00070E088E690E00E94EB0222E030E044E055
:1008B00050E06CE170E088E690E00E94EB021F914E
:1008C0000F9108952F923F924F925F926F927F9275
:1008D0008F929F92AF92BF92CF92DF92EF92FF9250
:1008E0000F931F93CF93DF9300D000D0CDB7DEB727
:1008F0006C013B012A01190109831A83EB82FC82F6
:1009000024E530E24EE050E06BE370E088E690E0F2
:100910000E941F02E4E5F0E28280912C982C88244A
:100920008381882AA480B12CBA2CAA248581A82A84
:10093000E084F12CFE2CEE248185E82A028510E06B
:10094000102F00278385082B848590E0382F2227DD
:100950008585A901482B4D835E83608170E0762FE9
:1009600066278181682B072E000C880B990B0E944B
:10097000600920E030E040E858E30E941B0AF601DD
:100980006083718382839383B401990C880B990BE4
:100990000E94600920E030E040E858E30E941B0A12
:1009A000F3016083718382839383B501BB0C880B51
:1009B000990B0E94600920E030E040E858E30E9473
:1009C0001B0AF2016083718382839383B701FF0C5A
:1009D000880B990B0E94600920E030E043E053E46B
:1009E0000E94BD08F1016083718382839383B80103
:1009F000110F880B990B0E94600920E030E043E062
:100A000053E40E94BD08E981FA8160837183828387
:100A100093832D813E81B901330F880B990B0E947E
:100A2000600920E030E043E053E40E94BD08EB8120
:100A3000FC8160837183828393832696CDBFDEBF62
:100A4000DF91CF911F910F91FF90EF90DF90CF90AA
:100A5000BF90AF909F908F907F906F905F904F90DE
:100A60003F902F900895CF93DF9324E530E241E04B
:100A700050E061E07FE080E490E00E94C902C4E5BC
:100A8000D0E289818F9388818F9387E290E29F9350
:100A90008F930E94EB0F0F900F900F900F90888113
:100AA0009981C69781F41F9286E38F938BE290E23F
:100AB0009F938F930E94EB0F0F900F900F900F90CA
:100AC00081E090E002C080E090E0DF91CF91089556
:100AD000CF93C82F80E790E20E94B8078823D1F314
:100AE000CA3029F46DE080E790E20E9414066C2F72
:100AF00080E790E20E94140680E090E0CF91089594
:100B000080E790E20E940306811521E09207C1F37D
:100B100008951F920F920FB60F9211240BB60F92E9
:100B20002F933F934F935F936F937F938F939F93F5
:100B3000AF93BF93EF93FF9380E790E20E94F20799
:100B4000FF91EF91BF91AF919F918F917F916F91A5
:100B50005F914F913F912F910F900BBE0F900FBE61
:100B60000F901F9018951F920F920FB60F9211249D
:100B70000BB60F922F933F934F935F936F937F9397
:100B80008F939F93AF93BF93EF93FF9380E790E290
:100B90000E940708FF91EF91BF91AF919F918F91B4
:100BA0007F916F915F914F913F912F910F900BBE6D
:100BB0000F900FBE0F901F901895CF92EF92FF925B
:100BC0000F931F939B01AC01C12CE12C12ECF12E71
:100BD00001E010E060EA7BE080E790E20E944E07CF
:100BE000EFE7F0E280E090E2808391838283938359
:100BF000E0EAF0E08281816082831F910F91FF9093
:100C0000EF90CF900895CF93DF93EC010E94DE0721
:100C1000882329F0CE010E94E60790E002C080E020
:100C200091E0DF91CF9108951F93CF93DF93EC0173
:100C3000162F0E94B807882321F0612FCE010E9451
:100C4000C207DF91CF911F910895803A28E0920763
:100C500039F4E0E4F6E088E0818384E0828308955B
:100C6000803B28E0920739F4E0E4F6E080E88183F5
:100C700080E482830895803A29E0920739F4E0E61F
:100C8000F6E088E0818384E082830895803B29E058
:100C9000920739F4E0E6F6E080E8818380E482831D
:100CA0000895803A2AE0920739F4E0E8F6E088E017
:100CB000818384E082830895803B2AE0920739F49F
:100CC000E0E8F6E080E8818380E482830895803A5A
:100CD0009B4031F4E0EAF6E088E0818384E082839F
:100CE00008954F925F926F927F928F929F92AF92F0
:100CF000BF92CF92DF92EF92FF920F931F93CF9309
:100D0000DF9349015A012E2D2170C0E1D0E002C0CD
:100D1000D595C7952A95E2F700230CF042C00E94B2
:100D20005E096B017C01DD27BE01DD0F880B990B8D
:100D30000E9460092B013C01C501B4010E945E09BB
:100D40009B01AC01C301B2010E941B0A9B01AC01D3
:100D5000C701B6010E94BD0820E030E040E85FE333
:100D60000E9421086B017C01112701950CF410955C
:100D700081E090E002C0880F991F0A95E2F7BC015C
:100D8000990F880B990B0E9460099B01AC01C70168
:100D9000B6010E941B0A0E94880A0E942F09CB01FB
:100DA0003EC00E945E096B017C01CE019927BC0107
:100DB000990F880B990B0E9460092B013C01C5011A
:100DC000B4010E945E099B01AC01C301B2010E9403
:100DD0001B0A9B01AC01C701B6010E94BD086B0153
:100DE0007C0181E090E002C0880F991F0A95E2F72C
:100DF000BC01990F880B990B0E9460099B01AC0103
:100E0000C701B6010E94BD0820E030E040E85FE382
:100E10000E9421080E94880A0E942F09CB01DF91BD
:100E2000CF911F910F91FF90EF90DF90CF90BF90E7
:100E3000AF909F908F907F906F905F904F900895AC
:100E40004F925F926F927F928F929F92AF92BF92DA
:100E5000EF920F93CF93DF932B013C0149015A018D
:100E6000D02FC9EFED2E0C2FA5019401C301B201C3
:100E70000E9471068115904118F0CF5FC83091F73C
:100E80008C2FDF91CF910F91EF90BF90AF909F90FB
:100E90008F907F906F905F904F9008952F923F9228
:100EA0004F925F926F927F928F929F92AF92BF927A
:100EB000CF92EF92FF920F931F93CF93DF93EC01AA
:100EC0001B0129013A0147015801EC2C0C2DA50109
:100ED0009401C301B2010E942007182F082FA50119
:100EE0009401C301B2010E947106F82E092F41E05E
:100EF000B101CE010E94AF07E881F98183E08583CB
:100F0000E881F981948190619483E881F9819481E9
:100F100098609483E881F98123812F7C2061238369
:100F2000E881F981F682E881F9811295107F102B12
:100F30001783888199810E942506DF91CF911F91A7
:100F40000F91FF90EF90CF90BF90AF909F908F90B8
:100F50007F906F905F904F903F902F900895FC018D
:100F600060837183428314861386168615860895DE
:100F7000FC01958526859F5F937081E0921301C0E7
:100F800080E008951F93CF93DF93EC01162F0E940A
:100F9000B807882379F09D85FE01E90FF11D1783BD
:100FA0009F5F93709D87E881F98193819C7F2A815F
:100FB000922B9383DF91CF911F910895FC0123859C
:100FC000948581E0291301C080E00895FC018485A7
:100FD000DF01A80FB11D13968C9194859F5F9370CC
:100FE00094870895FC0193859F5F93708485A08109
:100FF000B1812C91981749F08385DF01A80FB11DAD
:1010000013962C93938781E0089580E00895FC0166
:1010100086859585981307C00190F081E02D838126
:101020008C7F838308958685DF01A80FB11D1796F5
:101030008C91A081B1818C9386858F5F8370868728
:1010400008955058BB27AA270E9439080C94D90943
:101050000E94CB0938F00E94D20920F039F49F3F5A
:1010600019F426F40C94A1090EF4E095E7FB0C9416
:101070009B09E92F0E94EA0958F3BA176207730720
:101080008407950720F079F4A6F50C940C0A0EF469
:10109000E0950B2EBA2FA02D0B01B90190010C0188
:1010A000CA01A0011124FF27591B99F0593F50F4A0
:1010B000503E68F11A16F040A22F232F342F4427F8
:1010C000585FF3CF469537952795A795F0405395F0
:1010D000C9F77EF41F16BA0B620B730B840BBAF0C0
:1010E0009150A1F0FF0FBB1F661F771F881FC2F72B
:1010F0000EC0BA0F621F731F841F48F4879577953F
:101100006795B795F7959E3F08F0B0CF9395880FF8
:1011100008F09927EE0F979587950895DF93DD27BF
:10112000B92FBF7740E85FE31616170648075B073D
:1011300018F4D92F0E94130A9F938F937F936F9374
:101140000E94F20AECEFF1E00E94A4090E94D90982
:101150002F913F914F915F910E942E0ADD2351F014
:101160009058A2EA2AED3FE049EC5FE3D0785D2792
:101170000E943908DF910C94D9090E94D1080C947F
:10118000D9090E94D20958F00E94CB0940F029F4F5
:101190005F3F29F00C949B0951110C940D0A0C949B
:1011A000A1090E94EA0968F39923B1F3552391F349
:1011B000951B550BBB27AA2762177307840738F0C6
:1011C0009F5F5F4F220F331F441FAA1FA9F335D023
:1011D0000E2E3AF0E0E832D091505040E695001CD7
:1011E000CAF72BD0FE2F29D0660F771F881FBB1F91
:1011F000261737074807AB07B0E809F0BB0B802D6F
:10120000BF01FF2793585F4F3AF09E3F510578F09A
:101210000C949B090C940D0A5F3FE4F3983ED4F3C1
:10122000869577956795B795F7959F5FC9F7880F6E
:10123000911D9695879597F90895E1E0660F771FC0
:10124000881FBB1F621773078407BA0720F0621B51
:10125000730B840BBA0BEE1F88F7E09508950E947C
:10126000F20988F09F5798F0B92F9927B751B0F03D
:10127000E1F0660F771F881F991F1AF0BA95C9F71A
:1012800014C0B13091F00E940C0AB1E008950C94A2
:101290000C0A672F782F8827B85F39F0B93FCCF355
:1012A000869577956795B395D9F73EF49095809597
:1012B000709561957F4F8F4F9F4F0895E89409C0B7
:1012C00097FB3EF490958095709561957F4F8F4F79
:1012D0009F4F9923A9F0F92F96E9BB279395F6958F
:1012E000879577956795B795F111F8CFFAF4BB0F0D
:1012F00011F460FF1BC06F5F7F4F8F4F9F4F16C071
:10130000882311F096E911C0772321F09EE8872FFA
:10131000762F05C0662371F096E8862F70E060E0B6
:101320002AF09A95660F771F881FDAF7880F96952F
:10133000879597F9089597F99F6780E870E060E0D6
:1013400008959FEF80EC0895DF93CF931F930F9341
:10135000FF92EF92DF927B018C01689406C0DA2E37
:10136000EF010E942E0AFE01E894A5912591359186
:1013700045915591A6F3EF010E943908FE019701AE
:10138000A801DA9469F7DF90EF90FF900F911F9119
:10139000CF91DF91089500240A94161617061806B7
:1013A0000906089500240A94121613061406050669
:1013B0000895092E0394000C11F4882352F0BB0FFA
:1013C00040F4BF2B11F460FF04C06F5F7F4F8F4F5D
:1013D0009F4F089557FD9058440F551F59F05F3F98
:1013E00071F04795880F97FB991F61F09F3F79F047
:1013F00087950895121613061406551FF2CF4695C9
:10140000F1DF08C0161617061806991FF1CF86954A
:101410007105610508940895E894BB27662777272E
:10142000CB0197F908959B01AC0160E070E080E882
:101430009FE30C94BD080E942E0A0C94D9090E94C7
:10144000CB0938F00E94D20920F0952311F00C94BA
:101450009B090C94A10911240C940D0A0E94EA091D
:1014600070F3959FC1F3950F50E0551F629FF001F7
:10147000729FBB27F00DB11D639FAA27F00DB11D10
:10148000AA1F649F6627B00DA11D661F829F222799
:10149000B00DA11D621F739FB00DA11D621F839F20
:1014A000A00D611D221F749F3327A00D611D231FF6
:1014B000849F600D211D822F762F6A2F11249F5744
:1014C00050409AF0F1F088234AF0EE0FFF1FBB1F47
:1014D000661F771F881F91505040A9F79E3F510506
:1014E00080F00C949B090C940D0A5F3FE4F3983E46
:1014F000D4F3869577956795B795F795E7959F5FB0
:10150000C1F7FE2B880F911D9695879597F9089541
:101510000E94F209E8F09E37E8F09639B8F49E3858
:1015200048F4672F782F8827985FF9CF86957795AD
:10153000679593959539D0F3B62FB1706B0F711DE8
:10154000811D20F487957795679593950C94F60AFD
:101550000C94110B0C940D0A19F416F40C94A109B7
:101560000C94110B0E94F209B8F39923C9F3B6F356
:101570009F57550B87FF0E941F0B0024A0E640EAEF
:10158000900180585695979528F4805C660F771FD8
:10159000881F20F026173707480730F4621B730BAB
:1015A000840B202931294A2BA695179407942025CE
:1015B00031254A2758F7660F771F881F20F0261716
:1015C0003707480730F4620B730B840B200D311D75
:1015D000411DA09581F7B901842F9158880F9695E8
:1015E000879508959B01AC010C941B0A882371F424
:1015F000772321F09850872B762F07C0662311F4AC
:1016000099270DC09051862B70E060E02AF09A95E2
:10161000660F771F881FDAF7880F9695879597F9D9
:1016200008959F3F31F0915020F487957795679505
:10163000B795880F911D9695879597F908959150C4
:101640005040660F771F881FD2F708952F923F9260
:101650004F925F926F927F928F929F92AF92BF92C2
:10166000CF92DF92EF92FF920F931F93CF93DF936E
:10167000CDB7DEB76397CDBFDEBF6C014B012A014A
:10168000FC0116821782838181FF43C3AE014F5F45
:101690005F4F3A01F6019381F40193FD859193FF29
:1016A00081914F01882309F430C3853239F493FDC9
:1016B000859193FF81914F01853239F4B60190E015
:1016C0000E94B30F52012501E5CF10E0F12C20E07C
:1016D0002032A0F48B3269F030F4803259F083323A
:1016E00069F420612CC08D3239F0803339F42160E7
:1016F00026C02260246023C0286021C027FD27C0A7
:1017000030ED380F3A3078F426FF06C0FAE01F9F1C
:10171000300D1124132F13C04AE0F49E300D112414
:10172000F32E20620CC08E3221F426FDEEC220641E
:1017300006C08C3611F4206802C0883641F4F401EA
:1017400093FD859193FF81914F018111C1CF9BEB57
:10175000980F933018F42061805E06C09BE9980FC3
:10176000933008F071C12F7E26FF16E02F73322EC2
:10177000853619F42064322E08C0863621F4F22F03
:10178000F0683F2E02C01111115037FE07C01C3304
:1017900050F4EE24E394E10E27E00BC0183038F04B
:1017A00027E017E005C027E04CE3E42E02C0212F1C
:1017B000E12C520144E0A40EB11CF2016081718160
:1017C000828193810E2DA3010E94C50E2C010981F7
:1017D00000FF02C003FF07C031FC08C032FE09C091
:1017E00030E2232E07C02DE2222E04C09BE2292ED8
:1017F00001C0212C802F8C7019F0211068C2A8C262
:1018000037FE0FC0E40C04FF04C08A81813309F461
:10181000EA941E1474F5F8E0FE1578F588E0E82ED9
:101820002CC036FC2AC0812F90E0841595059CF0D1
:101830002CEF42162FEF520674F0432D4068342EE1
:101840000AC0E2E0F0E0EC0FFD1FE10FF11D808126
:10185000803319F411501111F4CF37FE0EC0EE246D
:10186000E394E10E812F90E0481659062CF41419E8
:1018700004C0EE24E39401C010E037FE06C0141447
:10188000150434F4C201019605C085E090E002C061
:1018900081E090E021100196112331F0212F30E0FA
:1018A0002F5F3F4F820F931F2F2D30E0821793073A
:1018B00014F4F81A01C0F12C832D897049F4FF202B
:1018C00039F0B60180E290E00E94B30FFA94F7CFAE
:1018D000222029F0B601822D90E00E94B30F33FC44
:1018E00009C0FF2039F0B60180E390E00E94B30FF9
:1018F000FA94F7CF37FE5AC0942D852D57FE02C0BB
:1019000090E080E0292E382E20E030E0A2014E1930
:1019100051094C875D87A201421953094E875F87A1
:10192000612F70E044275527461B570B488B598B76
:101930005FEF2516350649F4B6018EE290E02A8B5A
:101940003B8B0E94B30F3B892A89421453046CF0ED
:101950004C855D854215530544F4EE85FF85E20F05
:10196000F31FE60DF71D818101C080E351E0251AC8
:1019700031082F5F3F4F48895989241635064CF0AE
:10198000B60190E02A8B3B8B0E94B30F2A893B89DA
:10199000CFCF2414350439F49A81963318F4953353
:1019A00011F404FF81E3B60190E04BC08A818133DA
:1019B00009F00F7EB60190E00E94B30F111105C02F
:1019C00034FC18C085E690E017C0B6018EE290E0C6
:1019D0000E94B30F82E0EE24E394E80EF301E80FD7
:1019E000F11D8081B60190E00E94B30F11508E2D41
:1019F00091F7E6CF85E490E0B6010E94B30F57FC63
:101A000005C04114510439F404FF05C051944194B8
:101A100051088DE201C08BE2B60190E00E94B30F45
:101A200080E39AE0491651042CF08F5F5AE0451A82
:101A30005108F7CFB60190E00E94B30FB601C20182
:101A4000C0960E94B30F57C1833631F0833779F0C7
:101A5000833509F058C021C05201E2E0AE0EB11C3E
:101A6000F2018081898301E010E0230114C052015A
:101A7000F2E0AF0EB11CF2014080518026FF03C09E
:101A8000612F70E002C06FEF7FEFC2012A8B0E94CE
:101A9000A80F8C012A892F7715C05201F2E0AF0EF2
:101AA000B11CF2014080518026FF03C0612F70E01D
:101AB00002C06FEF7FEFC2012A8B0E949D0F8C0145
:101AC0002A892068322E23FD1AC08F2D90E0081736
:101AD0001907A8F4B60180E290E00E94B30FFA94CF
:101AE000F4CFF20137FC859137FE81912F01B601C9
:101AF00090E00E94B30FF110FA9401501109011502
:101B0000110579F7F8C0843611F0893659F552017C
:101B100027FF09C0F4E0AF0EB11CF20160817181B2
:101B2000828193810AC0F2E0AF0EB11CF2016081A4
:101B30007181072E000C880B990B2F76322E97FFA0
:101B400009C090958095709561957F4F8F4F9F4FFD
:101B50002068322E2AE030E0A3010E94FF0FE82E19
:101B6000E6183FC0022F853721F40F7E2AE030E0CF
:101B70001DC0097F8F3691F018F4883559F0C5C023
:101B8000803719F0883711F0C0C0006104FF09C028
:101B9000046007C024FF08C0066006C028E030E0EB
:101BA00005C020E130E002C020E132E0520107FF31
:101BB00009C0F4E0AF0EB11CF20160817181828135
:101BC000938108C0F2E0AF0EB11CF2016081718117
:101BD00080E090E0A3010E94FF0FE82EE6180F7747
:101BE000302E36FE0BC0332D3E7FE11650F434FE0E
:101BF0000AC032FC08C0332D3E7E05C00E2D332DA9
:101C000003C00E2D01C0012F34FF0CC0FE01EE0DEC
:101C1000F11D8081803311F4397E08C032FF05C088
:101C20000E5F04C0832F867809F00F5F33FD13C069
:101C300030FF06C01E2D0F1518F41F0D101B0F2DA1
:101C40000F1568F4B60180E290E03B8B0E94B30F61
:101C50000F5F3B89F5CF0F1510F4F01A01C0F12C7E
:101C600034FF12C0B60180E390E03B8B0E94B30FBB
:101C70003B8932FF17C031FD03C088E790E002C006
:101C800088E590E0B6010CC0832F867859F031FFCB
:101C900002C08BE201C080E237FD8DE2B60190E028
:101CA0000E94B30FE11638F4B60180E390E00E9481
:101CB000B30F1150F7CFEA94F301EE0DF11D8081BF
:101CC000B60190E00E94B30FE110F5CF14C0F4E02C
:101CD000FF1558F584E0F81A33FE1EC0211026C007
:101CE00003FF2AC002E312E0F32DF0713F2EF8014A
:101CF0008491811124C0FF2009F4E5CCB60180E273
:101D000090E00E94B30FFA94F6CFF6018681978196
:101D100026C08FEF9FEF23C0B60180E290E00E94C3
:101D2000B30FFA94F110F8CFD9CFF12CB601822D70
:101D300090E00E94B30FD4CF06E312E0D5CF31106C
:101D40008052B60190E00E94B30F0F5F1F4FCFCFBC
:101D500023E02F1510F483E0BECFF12CC1CF6396A2
:101D6000CDBFDEBFDF91CF911F910F91FF90EF901C
:101D7000DF90CF90BF90AF909F908F907F906F90AB
:101D80005F904F903F902F900895283008F027E003
:101D90003327DA01990F311D87FD916000966105A7
:101DA000710539F432602E5F3D9330E32A95E1F7F7
:101DB00008959F3F30F080387105610509F03C5F60
:101DC0003C5F3D93913008F08068911DDF93CF9385
:101DD0001F930F93FF92EF92192F987F9695E92FFB
:101DE00096959695E90FFF27EC56FD4F99273327D7
:101DF000EE24FF24A701E70105900894079428F436
:101E0000360FE71EF81E491F511D660F771F881FEA
:101E1000991F0694A1F70590079428F4E70EF81E81
:101E2000491F561FC11D770F881F991F661F0694F3
:101E3000A1F70590079428F4F80E491F561FC71FF5
:101E4000D11D880F991F661F771F0694A1F7059073
:101E5000079420F4490F561FC71FD81F990F661FFC
:101E6000771F881F0694A9F784911095177041F089
:101E7000D695C79557954795F794E7941A95C1F766
:101E8000EAE3F2E06894159015913591659195918A
:101E900005907FE27395E118F10A430B560BC90BCD
:101EA000D009C0F7E10CF11E431F561FC91FD01DFA
:101EB0007EF4703311F48A95E6CFE894015030F047
:101EC000080F0AF40027021708F4202F2395022F89
:101ED0007A3328F079E37D932A95E9F710C07D9352
:101EE0002A9589F6069497956795379517951794CF
:101EF000E118F10A430B560BC90BD00998F0239552
:101F00007E9173957A3308F070E37C932013B8F7D1
:101F10007E9170617D9330F0839571E37D9370E3E2
:101F20002A95E1F71124EF90FF900F911F91CF9127
:101F3000DF91992787FD90950895FC0105906150E8
:101F400070400110D8F7809590958E0F9F1F0895CF
:101F5000FC016150704001900110D8F78095909578
:101F60008E0F9F1F08950F931F93CF93DF93FB0155
:101F7000238121FD03C08FEF9FEF28C022FF16C0F1
:101F800046815781248135814217530744F4A0814B
:101F9000B1819D012F5F3F4F208331838C93268138
:101FA00037812F5F3F4F2683378310C0EB01092F06
:101FB000182F0084F185E02D1995892BE1F68E818B
:101FC0009F8101968E839F83812F902FDF91CF91E8
:101FD0001F910F910895CF93DF93CDB7DEB7AE0178
:101FE0004A5F5F4FFA0161917191AF018091812049
:101FF000909182200E94260BDF91CF910895FA01E3
:10200000AA27283051F1203181F1E8946F936E7F37
:102010006E5F7F4F8F4F9F4FAF4FB1E03ED0B4E028
:102020003CD0670F781F891F9A1FA11D680F791F69
:102030008A1F911DA11D6A0F711D811D911DA11D7A
:1020400020D009F468943F912AE0269F112430198A
:10205000305D3193DEF6CF010895462F4770405D25
:102060004193B3E00FD0C9F7F6CF462F4F70405DD4
:102070004A3318F0495D31FD4052419302D0A9F72F
:10208000EACFB4E0A6959795879577956795BA9529
:10209000C9F700976105710508959B01AC010A2EEF
:1020A00006945795479537952795BA95C9F7620FC6
:0E20B000731F841F951FA01D0895F894FFCF85
:1020BE0000000003000000006805800500004E6F60
:1020CE0020636F6E6E656374696F6E007069746302
:1020DE00683A20256C660025750A004D61646520FE
:1020EE00636F6E6E656374696F6E2C204D5055363E
:1020FE0030353020416464726573733A2030782530
:04210E0078200A002B
:00000001FF
